S01C0000415050535F454E444445564943455F44454D4F342E7372656336
S214000000C03D0020CD290000C9290000C9290000F4
S21400001000000000000000000000000000000000DB
S214000020000000000000000000000000C9290000D9
S2140000300000000000000000C9290000C9290000D7
S214000040C9290000C9290000590D00003D0500001F
S214000050C9290000C9290000C9290000C9290000D3
S214000060E5110000F5110000051200001512000051
S2140000702512000035120000C9290000C929000019
S214000080C92900008525000095250000A52500004B
S214000090B5250000C525000089020000C92900001A
S2140000A0C9290000C9290000C9290000C929000083
S2140000B00000000010B5064C2378002B07D1054B36
S2140000C0002B02D0044800E000BF0123237010BDBF
S2140000D0800A00200000000064CF0100084B10B525
S2140000E0002B03D00749084800E000BF0748036814
S2140000F0002B00D110BD064B002BFBD09847F9E72C
S21400010000000000840A002064CF010064CF0100D4
S2140001100000000070B50020084B98470500084C0A
S214000120FA218900A047074B186007492800A04716
S214000130064B18600522064B1A6070BDB5220000FB
S214000140A11201000000002040420F000400002021
S21400015010E000E030B5084B1C68084A00258021F6
S2140001604902013807D3002CFBD054609560136811
S2140001700B42FCD0F5E730BD0400002010E000E0A4
S21400018030B5084B1C68084A002580214902013812
S21400019007D3002CFBD05460956013680B42FCD04C
S2140001A0F5E730BD0000002010E000E00C4B1B68B7
S2140001B0002B06D1EFF31083002B07D00022094B4B
S2140001C01A70074A136801331360704772B6BFF39C
S2140001D05F8F0022044B1A700132024B1A70F0E750
S2140001E09C0A0020A00A002008000020084B1A687D
S2140001F0013A1A601B68002B09D1064B1B78002BAE
S21400020005D00122044B1A70BFF35F8F62B67047A9
S2140002109C0A0020A00A002008000020F0B5C64670
S21400022000B582B001AC0125657000239846A37026
S214000230257021001320124EB047124F80231B0357
S214000240BB61257021001220B0478023DB02BB6112
S214000250257021000D20B04780239B017B6125700F
S21400026021000920B04780239B007B614346237012
S214000270657021001C20B04702B004BC9046F0BD5B
S2140002804D0A00000028004070B52F4B1C682368FC
S2140002909A795D791540EA072AD501229A71626932
S2140002A0931C636123689B8C9BB21380238B013B5A
S2140002B09BB22383002B15D0637F002B18D02268B7
S2140002C0D3795BB2002B13DB138C9BB2002BFBD1D4
S2140002D0137E02210B4313762268138C9BB2002BED
S2140002E0FBD105E0012322681371237F052B16D06E
S2140002F06B0708D5042322689371E37E9B0702D51B
S214000300A37E9B0717D4AB0708D5022322689371F8
S214000310E37E5B0702D5A37E5B0710D470BD002387
S2140003202377E37EDB07E3D5A37EDB07E0D520005B
S214000330A3689847DCE72000E3689847E3E723696B
S21400034020009847EAE7C046EC100020012303701F
S214000350002343708370C37003710F224271837150
S214000360C371037270470268136802210B4313605F
S21400037070470323026853710268D37102681368DA
S21400038002218B431360704770B504000D00D378CC
S21400039003712160537843711379837113789B023C
S2140003A09178C9020B43517809020B43D178890032
S2140003B00B43117949010B4391798903D0794003A6
S2140003C00143107A0003014352791204F02000031F
S2140003D002400A4313431E002B689B0701D42E607D
S2140003E070BD2000034B98472E602000024B9847B4
S2140003F0F6E7C046730300006703000070B5054CBF
S214000400E56980239B012B43E36101230B60024BCC
S214000410984770BD000400408903000070B543791A
S214000420012B05D0002B10D0022B0DD1082500E0A3
S2140004300625002310C99A1C92000668B44662443A
S21400044054600133AB42F5D370BD0425F1E70000DC
S21400045010B50023026813720F4B426813400F4A10
S21400046093420AD00379032B0ED00C001034036895
S21400047004C99A638C42FAD110BD03680A689A636D
S21400048003684A689A63F7E78379023B012BECD846
S21400049003680A689A63EFE7FF00FF0003000100A5
S2140004A0002302681372104B426813400F4A9342AF
S2140004B00AD00379032B0ED00A00103203689B6B18
S2140004C008C18A42FAD1704703689B6B0B600368C9
S2140004D09B6B4B60F7E78379023B012BECD80368F4
S2140004E09B6B0B60EFE7C046FF00FF0003000100B8
S2140004F01723002A01D0180070478B00064A9B5825
S214000500002B03D0834205D01D23F4E789008850D2
S2140005100023F0E70023EEE7F4100020172300295D
S21400052001D01800704700221F2800D8024A012375
S214000530834013610023F4E70024004070B50022D6
S214000540104B1A70002310491F25104E0D4C0AE060
S2140005500D4908E023780133DBB223700F2B10D847
S21400056000211F2BF4D92800184001228240486938
S2140005701042EFD04A619B009B59002BEAD0984767
S214000580E8E770BDF010002000240040F4100020C2
S214000590064A137802210B43137001205368194250
S2140005A0FCD153681842F9D17047C0460024004079
S2140005B0064A137802218B431370012053681942B0
S2140005C0FCD153681842F9D17047C0460024004059
S2140005D010B5124A516980239B000B435361104AA1
S2140005E0137801210B43137001310120536819421F
S2140005F0FCD153681842F9D1094A137810210B43ED
S2140006001370084B19004031002204C38B42FCD102
S2140006100822054B1A60054B984710BD00040040A1
S21400062000240040F410002000E100E091050000E6
S2140006300023036043600122027283720132C27299
S21400064043727047F0B583B005000C001C4B98470A
S21400065001A900234B70CB7023790B70237A8B7023
S2140006602078184B984700211F2D00D816490722DE
S2140006702A409200E77AA37A002B01D008231F4372
S214000680EB089B00CB18D8690F269640B0439740DE
S2140006903A000243DA61637A002B0BD18A690123A0
S2140006A0AB40DB431B041B0C13408B61074B984786
S2140006B003B0F0BD8A690123AB4013438B61F5E7B5
S2140006C0B10500008D2400000024004091050000C4
S2140006D010B51E4A936904210B4393611C4B2022DC
S2140006E0FF321A831A7D0523D20701D4180010BDE5
S2140006F003781B02C022920013404178C901FF22F2
S2140007000A401343817849001E220A401343C278E8
S21400071092048021C9020A40134302791204C021C0
S21400072089020A4013430A4A536093685B035B0FCF
S214000730084908249C400C8093684B8043780B71D2
S214000740138BDB05DB0F1B01D0E7C046000400401F
S21400075000400041A40A002030B50400254A108855
S214000760538843438B420BD280229201224BCB18F4
S214000770934205D9214A1820214BCB1893420ED814
S214000780204B5D688022D2022A435A602022FF3224
S2140007901A831B7DDB0703D41A4B5D60052030BD32
S2140007A0452C22D8A300184AD3589F46154B1B8BBE
S2140007B0DB0503D5134B5D601020F0E78908490080
S2140007C0104BD96103E0890849000E4BD961A5207A
S2140007D0000204430B4B1C80190001220B7D1342C0
S2140007E0FCD0084B5D600020D9E7064B5D60172003
S2140007F0D5E7C046A40A002000C07FFFFF1F000008
S2140008000000C0FF0040004178AC0100F8B52F4B57
S2140008101C885B886343834207D22D4E18252D4BD8
S214000820C318B34206D8012600E00026631E18252A
S214000830184201D02800F8BD013D9442FAD3264B59
S2140008401B7D123DDB07F5D5244C234B1C801D0079
S21400085001242B7D2342FCD02024FF341E4B1C8316
S214000860002A2CD0012305009D430023541EA446D5
S21400087009E0CF187F783F023C432C8002339BB2BE
S21400088002359A4204D9CC5C6345F2DBA4B2F4E7A5
S2140008900E4B1B790025002BCCD13F2ACAD8002E40
S2140008A006D10022010004200D4B98470500C1E741
S2140008B0002201001C200A4B98470500BAE7034BAC
S2140008C01B790025002BEAD0B4E7C046A40A002016
S2140008D0FF1F00000000C0FF0040004144A5FFFFCE
S2140008E05907000070B51B4B1C885B886343834226
S2140008F005D2194E1825194BC318B34203D8631EE8
S2140009001825184201D0280070BD013D9442FAD344
S214000910134B1B7D123DDB07F5D52024FF34104B0F
S2140009201C83002A14D0012398430023561E04E09B
S21400093002339BB202309A4208D90488A4B2CC543F
S214000940B342F5DACD18240A6C70F1E70025DAE731
S2140009500025D8E7A40A0020FF1F00000000C0FF03
S2140009600040004110B51B4A138852885A43824201
S21400097007D2194C182219494118A14207D801215B
S21400098000E000219B00013B1822184201D0100015
S21400099010BD134B1B7D133ADB07F8D5104B2022F6
S2140009A0FF321A8380084000D86100290FD10D4A13
S2140009B00B4B1A80190001220B7D1342FCD0084B0A
S2140009C01A8B1C200240501E82419200DFE7064A26
S2140009D0EEE7C046A40A0020FF1F00000000C0FF8C
S2140009E00040004102A500001AA50000154B202279
S2140009F0FF321A839B685903490F183AFF3A8A4018
S214000A00027043801B0D83810F4B1B885B065B0FB8
S214000A10072B10D00622D21A0423934043600A4BB9
S214000A201B8807221340072B08D00722D21A04235C
S214000A3093408360704700234360F0E700238360A1
S214000A40F8E7C046004000410040800000B583B093
S214000A5001AB80221A700A785A704A789A708A789F
S214000A60DA701900014B984703B000BD8D240000D2
S214000A7003681869431E9841C0B2704770B50400F9
S214000A8006680422084B1A60084D2000A847002874
S214000A90FBD13388022213433380044D2000A8473D
S214000AA00028FBD170BDC04600E100E0710A0000DE
S214000AB070B504000668042180230A4AD1500A4D06
S214000AC02000A8470028FBD1084B3381B381338828
S214000AD0022293433380044D2000A8470028FBD110
S214000AE070BDC04600E100E0710A0000FF81FFFF14
S214000AF070B5040006680A4B98470023A386E38671
S214000B00084D2000A8470028FBD133880122134354
S214000B103380044D2000A8470028FBD170BDC04696
S214000B20B10A0000710A0000F8B504000E0007685C
S214000B300C4D2000A8470028FBD12379002B09D0B4
S214000B401720012B05D1BE61064D2000A8470028BE
S214000B50FBD1F8BD044B17209E42FAD8B6B23E83AE
S214000B60F2E7C046710A0000FFFF000070B50400FF
S214000B700668084D2000A8470028FBD12379002BE3
S214000B8004D00020012B00D1B06970BD308B80B23C
S214000B90FBE7C046710A0000F0B583B0040001917F
S214000BA015000668134F2000B8470028FBD12379AC
S214000BB0002B0ED0012B19D11730012D17D8083570
S214000BC0AD00019BAB510B4D2000A8470028FBD180
S214000BD00DE01720022D0AD8074B019A9A4206D834
S214000BE06B469B8810356D00AB53ECE71A2003B0BC
S214000BF0F0BDC046710A0000FFFF000070B504009B
S214000C00150001601F4A516980235B000B43536146
S214000C1005221D4B1A611D4B9847AB7823711C4B60
S214000C201C6022682B79DB0329880B439BB2138058
S214000C30AB78002B13D01720012B0FD113889BB253
S214000C401380EB78002B03D0138880210B4313808E
S214000C50A968002220000F4B9847002070BD13881B
S214000C6004210B431380EB781720002BF6D10022CB
S214000C70A9682000074EB047E96801222000B04767
S214000C800020EBE70004004000100040F10A0000DE
S214000C9034110020990B00000A2A09D0072A07D928
S214000CA00379002B10D0012B12D11633092A09D84C
S214000CB0931C9B001950838E012191400B439BB2DD
S214000CC0838600231800704717230A2AFAD8EFE70E
S214000CD01723F7E710B502680A2911D0072912D999
S214000CE080235B000C00083CA340C024A4002340E3
S214000CF05381C38E01228A4013439BB2C38610BD24
S214000D00044B5381F5E701248C40FF232340538195
S214000D10EFE7C0460080FFFF10B502680A2910D032
S214000D20072911D980235B000C00083CA340C0248F
S214000D30A40023401381C38E01228A409343C386B6
S214000D4010BD044B1381F6E701248C40FF2323409B
S214000D501381F0E70080FFFFF8B5DE4657464E46A3
S214000D604546E0B52B4B1B689A461E68DB8E5246FE
S214000D70928E1A409046B289738913401AB2002A9E
S214000D8008DBFF271F402AD0002401239946FE33A4
S214000D909B4614E043465B0507D41F4BB3813CBC1F
S214000DA090469946A246AB46F8BD53461B6B9847FD
S214000DB0F3E75B461D40B5810134082CEFD02300D5
S214000DC04D46A5402F42F4D04246224149461142A4
S214000DD0EFD002339B0052469B589847E9E7DA0566
S214000DE00AD54346DB0503D480235B00B381D6E7F0
S214000DF053469B6A9847F7E79B05D0D543469B0525
S214000E0003D480239B00B381C9E75346DB6A984727
S214000E10F7E7C046341100200080FFFFF0B5DE463D
S214000E2057464E464546E0B587B0804604911600C4
S214000E301F000022002300218B463F2401202100B2
S214000E40009601975C4603944446059413E02024DC
S214000E50641A0500E540A84614E0009C019D121B9C
S214000E60AB415C464D462C43A346039C45462C436B
S214000E700394013925D3202464420C19E7D40500D5
S214000E80A540A84604008C40A14692185B41140079
S214000E901D00059E4F463E40B446049E47463E40D3
S214000EA0B246664657463E4303D006002643320007
S214000EB02B00009C019D9D42DBD8CED19442D8D811
S214000EC0CBE7039B5846190007B03CBC90469946B2
S214000ED0A246AB46F0BD10B5490840230024814227
S214000EE002D2180010BD1C00091A631C9BB288426F
S214000EF0F9D94023FF2CF4D814800023F1E7000032
S214000F00F0B583B00F00160008AA117804004C4311
S214000F104022BC4202D9100003B0F0BD002B14D111
S214000F20020008000021194CA04701003A000023E7
S214000F300020174CA04700220123121A8B41120CE6
S214000F401B041A4332800022E5E70022012BF9D168
S214000F500A00002300210D4CA04702000B0000925F
S214000F600193380000210A4CA047050080239B010E
S214000F7040229842CFD8790FF800009A019BA047EC
S214000F80EA00821AD2B252032A43DBE74116010076
S214000F901D0E000010B582B004000E4B1B78002B0F
S214000FA007D0002905D10B4B5B78834210D01D205B
S214000FB00CE001A90C701120074B98471120074B35
S214000FC09847044B5C7001221A70002002B010BDD6
S214000FD00020FBE7AC0A002091230000212300003C
S214000FE03C4B984232D00AD93B4B98424ED03B4BB2
S214000FF0984255D03A4B984238D000207047842308
S214001000DB0598420CD0374B9842F6D1012917D011
S214001010002957D0022915D0032915D00020EDE766
S214001020012907D000294BD0022905D0032905D075
S2140010300020E3E72C48E1E72C48DFE72C48DDE713
S2140010402C48DBE72C48D9E72C48D7E7012907D0FE
S214001050002939D0022905D0032905D00020CDE784
S2140010602748CBE72748C9E72748C7E7012907D01D
S21400107000292BD0022905D0032905D00020BDE782
S2140010802248BBE72248B9E72248B7E7022903D03F
S214001090032903D00020B1E71F48AFE71F48ADE79C
S2140010A0012907D0002913D0022905D0032905D02D
S2140010B00020A3E71A48A1E71A489FE71A489DE7C9
S2140010C01A489BE7032099E7194897E7194895E7D8
S2140010D0194893E70008004200100042000400434D
S2140010E0000C004200040042030005000300060056
S2140010F0030007000300010003001E0003001F009A
S2140011000300090003000A0003000B00030011009F
S214001110030012000300130003000E0003000F007C
S2140011200300170003001800030019000300040062
S21400113003000800030010000300160030B587B057
S2140011400B4B6A4632CB32C232CB32C2009B834252
S2140011500BD001239A0069465258824206D00133CA
S214001160062BF7D1002007B030BD0023D8B2FAE72F
S21400117090AD010070470000F0B50A4B1B78002BBD
S2140011800CD1094F094E0A4D0024DE515A1914603D
S2140011900433182BF9D10122024B1A708000024B3F
S2140011A0C150F0BDAE0A0020B00A00207511000044
S2140011B03811002000B583B008236A461370013347
S2140011C05370013393700133D370013313710133BD
S2140011D05371034B98476B46185603B000BDC04684
S2140011E03D11000010B5024B1B680020984710BD4B
S2140011F0B00A002010B5024B5B680120984710BD6E
S214001200B00A002010B5024B9B680220984710BD1C
S214001210B00A002010B5024BDB680320984710BDCB
S214001220B00A002010B5024B1B690420984710BD79
S214001230B00A002010B5024B5B690520984710BD28
S214001240B00A0020F0B5D6464F464646C0B58AB02E
S21400125006000F00140031600B689B070AD40B6869
S2140012600520DB0700D497E00AB01CBC90469946E0
S214001270A246F0BD936A0593D36A0693136B079351
S214001280536B089300250AE038009A4B98470EE007
S2140012900F231840814530D10135042D31D0E9B2F5
S2140012A0AB0002AA0C201218D0580028ECD0431C21
S2140012B0F2D001040B0C9946000CC3B29C460023E6
S2140012C0020605D463465B09DB018B4A904643441D
S2140012D01F226046024098184030007882468020E0
S2140012E05146C907D6D552089B1830331878C0B275
S2140012F06346DB07CCD50009CCE7002333601C200F
S214001300B2E711207D4B984722780025012A26D087
S2140013106368A2681343E26813432B43227C617C14
S214001320002901D080210B43A17C002902D0802116
S21400133089020A43E17C002902D0802189000A4301
S214001340217D002902D0802189010A4339680220C4
S21400135003438B4217D0002333601C2084E704AA83
S2140013600100A069664B984703001720002B00D0A9
S2140013707AE73B7BDBB204AA127805309A4200D0AB
S21400138072E70C35C4E77B689342E4D12378737127
S214001390237CB371002067E708005A4B984705285E
S2140013A000D19FE0030012335749CD6901228240E5
S2140013B02A43CA6109A92425625D0A70DBB201933B
S2140013C01800524B98470198514B9847605D002192
S2140013D0504B98472378012B19D03368984604ABB6
S2140013E080221A7000225A7001219970DA702378D0
S2140013F0002B01D104AB9A70A36A0593E36A0693A7
S214001400236B0793636B0893002705AD11E03B68D9
S2140014100C2213433B60E0E74046364B98470DE00E
S21400142004A90870000CC0B23B4B98470137042F44
S21400143007D0F9B2BB0058590028EDD0431CEFD1B5
S214001440F4E723787371237CB371A37CF371237D57
S2140014503372002202ABDA802378012B2AD063682D
S214001460A2681343E2681343217C627C002A03D1FE
S2140014702A4A9278920701D580221343A27C002A3A
S21400148002D0802292021143E27C002A02D08022FF
S21400149092001143227D002A02D08022920111433D
S2140014A04246126813434246136053680B43536028
S2140014B00020D9E63068134B98471230C0B20F4B65
S2140014C09847010002AB9A1DA0690D4B9847030090
S2140014D01720002B00D0C7E602AB06331B78424627
S2140014E01373BCE7084A136A02210B4313621823DE
S2140014F060E7C046E10F000000280040B52300006A
S214001500D70E00003D1100000004004091230000AB
S21400151021230000950F00008D24000000200041CC
S21400152010B544791523012C01D0180010BD047A9B
S2140015300023002CF9D1002A58D04B78002B44D039
S21400154003681B7EDB0710D40A78D1090023002924
S21400155004D15309DB012E498C4663441F211140F8
S21400156001228A409A610523DFE70A78D40900231E
S214001570002C04D15309DB01254CA44663441F24E8
S21400158014400122A2405A6103681A7ED20701D590
S2140015908A789A62C2790023002AC6D1026804219A
S2140015A0137E0B42FCD0117E00234907BDD5538B1A
S2140015B05B0701D5042353838379012B02D0936AFA
S2140015C00023B2E7936A0023AFE70A78D109002325
S2140015D0002904D15309DB010D498C4663441F21C1
S2140015E0114001228A405A6100239EE70A78D109F9
S2140015F00023002904D15309DB0105498C466344C6
S2140016001F21114001228A409A6100238DE7C046BF
S21400161000280040F0B5DE4657464E464546E0B543
S21400162091B005000C00160029600800C64B9847CC
S214001630020005280DD00700123703002168052098
S214001640C90709D511B03CBC90469946A246AB46A0
S214001650F0BD18270123F1E7216817308907F1D478
S214001660052A49D0B949C86901229A4013000343A4
S214001670CB610FA92D239846F35C0B70FFB23800A0
S214001680B34B98473800B34B98474346F05C00216D
S214001690B14B9847F37A6B712423F35CAB71252327
S2140016A0F35CEB71F37E2B72337F6B722B6898467C
S2140016B01800A54B9847052826D0123000220E2386
S2140016C006A98C4663441A80328A02928023DB0184
S2140016D09A4200D1ABE019D9C023DB01029A9A42A4
S2140016E000D19FE080231B029A4200D027E103230B
S2140016F006930023079312E09449086A043A9A4036
S214001700130003430B62B4E71820D7E780239B013E
S2140017109A4200D013E1102306930F3B07933368D9
S2140017200593F368039373690493337E9B462623DD
S214001730F35C9A4673689946002B00D19FE080239D
S2140017405B05994504D12723F35C002B00D184E088
S214001750737E002B02D0B37E424693732A68029FA4
S214001760D369002BFCD10E3306AA944663441B882B
S21400177042469381059B039A1343049A13434A46B1
S21400178013431F435B461B021F4353465B071F431F
S2140017902723F35C002B01D104331F43737E9B0287
S2140017A0327F52021343727F120213432422B25C2A
S2140017B0520413432522B25C12041343B17AF27A20
S2140017C0114319433389FF2B7DD0802252041743DF
S2140017D019432C23F35C002B03D1604B9B789B07AB
S2140017E001D580231F432A68D369002BFCD14346CA
S2140017F059602A68D369002BFCD143461F600EABA4
S21400180080221A7000225A70DA709A70336B0A932C
S214001810736B0B93B36B0C93F36B02930D930027D0
S2140018200AAE5EE008230693073B079377E7336824
S2140018300593F368039373690493337E9B462623CC
S214001840F35C9A4673689946002B14D080235B0598
S214001850994500D177E7002020E0336A1F00C0B228
S2140018603F4B984701000E2206AB9C466244380068
S2140018703C4B984712E00823069300230793272340
S214001880F35C002B0ED0069B0093079B0E2206A946
S2140018908C466244B16A306A334FB847002800D09D
S2140018A0D0E655E7336A1F00C0B22D4B98470100BB
S2140018B0069B0093079B0E2206A8844662443800C7
S2140018C0294FB847EAE7F37E002B82D08023DB045B
S2140018D01F437EE72000254B984707E00137042F7B
S2140018E00DD0F9B2BB0098590028F3D0431CF5D0B0
S2140018F00EA90870000CC0B21D4B9847EEE70023F7
S214001900EB602B616B61AB61EB612B62AB626B6270
S2140019100022EB85AB853033EA540133EA540133B9
S214001920EA540133EA542868074B984704001149E3
S214001930114B9847A400114BE550002082E6102377
S214001940069300230793EAE63D11000000040040DA
S2140019509123000021230000950F00000020004185
S214001960B5230000D70E0000010F0000E10F0000B5
S2140019708D240000B51A00007911000038110020EF
S214001980C2791C23002A01D118007047C28D92B27A
S214001990173B002AF8D10368DA69002AFCD11985BA
S2140019A002211A7E0A42FCD00023EDE782791C232E
S2140019B0002A01D118007047828D92B2173B002A88
S2140019C0F8D10268107E4007F4D5D369002BFCD10D
S2140019D0538BDBB298061DD0980703D5022353839A
S2140019E01833E7E7580703D5042353831A33E1E790
S2140019F0D80703D5012353831233DBE7D80603D574
S214001A00102353833233D5E79B0603D52023538315
S214001A102133CFE7138D0B800023CBE7F0B5D646F6
S214001A2000B584B0040001911720002A03D104B049
S214001A3004BC9246F0BDA3790530002BF7D026688B
S214001A40013A93B29A460025042719E0002302AA19
S214001A50D380911D2000154B98470028E7D1691CBC
S214001A6089B202ABDB88019A53556279012A14D0F9
S214001A700D005346013B9BB29A460D4B9A45D6D075
S214001A80337E3B42E2D10A4B327E3A42DED1012B14
S214001A9009D0013B002BF7D1D8E70235ADB21B0ABF
S214001AA0019A5354E5E71220C1E7C046AD1900007D
S214001AB0FFFF0000F8B58000624BC5582C68E3694C
S214001AC0002BFCD1237EA67D1E403023EB5C31220A
S214001AD0AF5C1F40F30722D5EB8D9BB2002B1CD0CA
S214001AE0AA6A1378DBB2511CA962697901290ED063
S214001AF09BB2DB05DB0D2385EB8D013B9BB2EB85B3
S214001B00002B0CD1013323750133A37507E0517800
S214001B1009020B430232AA62EBE701232375B307DF
S214001B2006D50223237500223133EA54FB071AD464
S214001B30730765D5AB8D9BB2002B5FD0638BDBB292
S214001B401A0714D43F221340002B34D09A0711D51D
S214001B501A223223EA54303B63837B0750D5280091
S214001B606B6998474CE02800EB689847E0E7372217
S214001B701340E9E75A0705D51E223223EA542E3BC6
S214001B806383EAE7DA0705D513223223EA54313BAA
S214001B906383E2E7DA0605D542223223EA54223B83
S214001BA06383DAE720221A42D7D021323223EA545E
S214001BB0123B6383D1E7238DDB05DB0DDAB2696A5E
S214001BC00A706A6A511C69626979012910D0AB8D66
S214001BD0013B9BB2AB85002B12D104332375002248
S214001BE02E33EA54BB070BD528002B69984707E02D
S214001BF01B0A53706B6A01336B62E8E70423237594
S214001C00F30604D5102323752376FB060ED4B306FD
S214001C1004D52023237523763B070BD4330704D53E
S214001C20082323752376BB0608D4F8BD2800EB6985
S214001C309847ECE72800AB699847EFE72B6A28003F
S214001C409847F2E73811002010B5082803D880001E
S214001C501C4B1B589F46002032E01B4B18692FE098
S214001C601A4B187D0007800F431C1948584327E07D
S214001C70154B586924E0144B1B6800209B071FD5A2
S214001C80124980225200CB681342FCD00E4B1B68D0
S214001C905B0701D40F4813E000200F4B98470A4B10
S214001CA09B681B041B0C58430AE02823074AD35C96
S214001CB000209B0704D5044BD86801E08020000272
S214001CC010BDC046A8AD0100C80A0020000C0040A8
S214001CD000093D00006CDC02B523000070B50B4C1B
S214001CE0237D8578467802780321114089000C22EE
S214001CF093430B430B3A3240920140218B431343EC
S214001D00ED017F2213402B43237570BD000C00406D
S214001D10F0B5D6464F464646C0B5204B9A465B6958
S214001D20457801784C424C41A14681788C46C17872
S214001D308846467A077A847A4068194948610121BC
S214001D404846800004229343034340460840C000B0
S214001D50043293430343604608400001083293432D
S214001D6003430F40BF01402083433B430E40F60130
S214001D70403083433343793805402D0209480340F9
S214001D802B4321400903084803400B435246536146
S214001D901CBC90469946A246F0BDC04600100040C6
S214001DA0C80A0020FFF8FFFFFFEFFFFF10B5837A99
S214001DB09B061B0C82899205920D13431A494B60B1
S214001DC0037A427A13438288C488224313434278B4
S214001DD0D20113438278920113430B600378042BDD
S214001DE011D0202B0ED1837B9B06428A1343028A96
S214001DF012040E490A4013430B4A936011680C4BB9
S214001E000B43136010BD837B9B06428A1343028AF2
S214001E10120406490A401343034A936013680421D8
S214001E200B431360EEE7C046C80A00200000FF031D
S214001E3024040000082803D88000294B1B589F461E
S214001E4017204BE0274A137D02210B431375002011
S214001E5044E0254A936902210B43936100203DE04C
S214001E60204A138A02210B431382002036E01E4AC2
S214001E70536902210B43536100202FE01B490B6876
S214001E80022213430B60174B1A831900FE32CB68ED
S214001E901342FCD0154A9168124B19625268DA61F7
S214001EA000221A8319000132FF32CB681342FCD09D
S214001EB00E4B1B689BB20B4A138300200EE00949A9
S214001EC028228B5C022003438B5408003821263AD4
S214001ED0435C1342FCD1002000E000207047C0465F
S214001EE0CCAD0100000C004000100040C80A0020E5
S214001EF0082832D880001A4B1B589F46194A137D73
S214001F0002218B43137500207047174A93690221FC
S214001F108B4393610020F7E7124A138A02218B4312
S214001F2013820020F0E7104A536902218B43536165
S214001F300020E9E70D4B1A6802218A431A601B68E5
S214001F409BB2084A13830020DEE7064928228B5CF2
S214001F50022083438B540020D6E71720D4E7C046E0
S214001F60F0AD0100000C004000100040C80A002040
S214001F70F0B5CE46474680B58DB080225200764BEF
S214001F809A60FD3A754B9A60754A53681E218B43DA
S214001F901A390B4353608023DB059B78022B0FD046
S214001FA08023DB059B785BB2002B09DB8023DB05F7
S214001FB001229A7101329A701A009379002BFCD094
S214001FC009A8002303708022120242608370012257
S214001FD0C27003728372033242704372614B984739
S214001FE00520614B984761490122CB681A42FCD014
S214001FF001A901254D6000244C700C724C7203231D
S2140020000B7000205A4B984706205A4B98476B4651
S2140020105C701D709C706846574B98470620524B64
S21400202098474D491022CB681A42FCD001A90123DB
S2140020304B6000244C7005330B700C724C72002001
S2140020404B4B984704AB00229C80DC801A725A7275
S2140020509A703F2199813B3919705A70474B1B681B
S2140020609B0E3F2B00D174E004A88372B723DB00DD
S21400207043820723837338330382414B9847414B8F
S214002080984701AC01260296002565706572052307
S21400209099462370267221000120354B98469847B2
S2140020A00120394FB8476570062323702572657284
S2140020B04B46636021000220C0470220B8472670C6
S2140020C021000020314B98470020314B98470720CD
S2140020D0254B98472049D0221201CB6813409342E3
S2140020E0FBD12C4C0123A3716371237101A900233A
S2140020F04B700B724B7207330B70013B4B6000202A
S2140021001B4B98470020204B98470020224B9847AF
S2140021102179C9B2214B9847214B984214D8802385
S214002120DB059B78002B0FD08023DB059B785BB20A
S214002130002B09DB8023DB0501229A7100229A70AE
S2140021401A009379002BFCD00DB00CBC9046994633
S214002150F0BD203B88E7C046000C0040001400405D
S21400216000400041111D0000351E00000010004018
S214002170C9210000F11E0000DD1C00002060800068
S214002180AD1D0000A521000075220000912300006F
S2140021902123000000040040B5220000A112010027
S2140021A0001BB700064A536940210B4353610122C6
S2140021B0044B1A7019000B781342FCD17047C046C6
S2140021C0000400400018004070B504000D784B78FD
S2140021D0002B02D08023DB001D434B7A002B02D05D
S2140021E080231B011D43486801280FD9431E18424F
S2140021F031D102282DD90223002201325B009842F9
S214002200FBD880235B011D43120415430B7A002B79
S21400221002D080239B011D430426A6401149124A82
S2140022204B6813401E42FBD1104B9847A4000D4B41
S2140022309C466444226A80235B001A402A4322623A
S2140022406146094A4B6813401E42FBD1084B98472B
S21400225070BD0022D5E7000480239B001843054389
S214002260D4E7C04600180040FC070000AD0100009F
S214002270ED01000010B504000422824009480A4916
S21400228043680B401A42FBD1084B9847A400054B05
S2140022909C466444226A80235B0013432362044BFB
S2140022A0984710BD00180040FC070000AD01000074
S2140022B0ED010000F8B504000422824012481349DC
S2140022C043680B401A42FBD1114B98470E4F083417
S2140022D0A400E0590007000F0E4B98470600E5598A
S2140022E0ED04ED0FE459240C0B4B9847002D07D155
S2140022F0012C07D921003000084B9847060001E062
S2140023000134E6403000F8BD00180040FC0700002D
S214002310AD010000491C0000ED010000A112010003
S21400232010B50400094B9847A000094B9C46604432
S2140023308022835840210B4383504031403A435813
S2140023401A42FCD0034B984710BDC046AD010000B2
S21400235000180040ED01000010B50400094B984736
S214002360A000094B9C4660448022835840218B4342
S21400237083504031403A43581A42FCD1034B9847A9
S21400238010BDC046AD01000000180040ED01000081
S21400239070B504000D00054B98472A780F231340AC
S2140023A02034A400024AA35070BDC0465923000042
S2140023B00018004010B50400064B98472034A400CF
S2140023C0054BE4582407240F044B98472000044B81
S2140023D0984710BDAD01000000180040ED01000058
S2140023E0B522000030B5D378002B35D11378802B7A
S2140023F029D01B0680246402234354780225AC436C
S21400240006D19478002C20D18024A4022343416076
S2140024105478013C012C1CD90D042D0CA024E40595
S2140024202C431C4384620D0CD02424062C431C43EE
S2140024308462D478002C22D15B031CD59378012BC0
S2140024401ED0416117E00023D7E7C024E4022343EF
S214002450DDE70D4C2340DFE741600C04240CA0238D
S214002460DB05234383620C0CD0231B0623438362C5
S214002470D378002B03D15378013B012B02D930BD12
S2140024808161F8E78160FAE7FFFFFBFF10B50A00FD
S214002490C1090023002904D14309DB0105498C4604
S2140024A063441F242040012181401800024B9847B6
S2140024B010BDC04600280040E5230000704700001D
S2140024C010B5054B9847054B9847054B9847054B65
S2140024D09847054B984710BD711F00001D0200006D
S2140024E0BD240000D1050000BD240000931C9B0005
S2140024F01950022A09D0032A0CD0012393401A004F
S214002500037E1343037600207047037E1022134396
S2140025100376F8E7037E202213430376F3E70000F2
S21400252070B58000164BC45823689D7A227E637E61
S21400253013401D40EB0706D4AB070BD4EB0610D4B4
S214002540AB0615D470BD2000A36898470123226807
S2140025509372F1E72000E36898470223226893729B
S214002560ECE7200023699847102322689372E7E778
S214002570200063699847236820229A72E2E7C046E3
S2140025805011002010B50020014B984710BDC046E2
S2140025902125000010B50120014B984710BDC0460C
S2140025A02125000010B50220014B984710BDC046FB
S2140025B02125000010B50320014B984710BDC046EA
S2140025C02125000010B50420014B984710BDC046D9
S2140025D02125000030B587B001A90C4B0A0032CB8C
S2140025E032C212CB12C2019B98420BD0012301A922
S2140025F09A005258824206D00133052BF8D10020AB
S21400260007B030BD0023D8B2FAE7C0463CAE0100A2
S214002610F0B5C64600B58EB004000D0016000800E2
S214002620AE4B984780460CAB1B221A705A7001328C
S2140026309A70DA7001321A7102A9A94B14330A0093
S21400264083CB83C283CB83C283CB83C21B681360D6
S2140026500023A360E36023616361237663764346C9
S2140026609A00A04BD45025603423F35CA376F3780D
S214002670082B08D023712B680520DB0708D50EB081
S21400268004BC9046F0BD17204246D207F7D4F1E7C7
S214002690EB7A17309B07F2D42B689B07EFD4337C7A
S2140026A0002B12D1337F002B1BD143465A0002A9C0
S2140026B0531C9B0058584346DB005B58D9B204298C
S2140026C023D88B008849CB589F4601A901238B70DD
S2140026D00022CA70327E0A704B70307D834B98475A
S2140026E0E0E701A901238B700022CA702432B218D9
S2140026F012780A704B701F33F31818787B4B984784
S214002700D3E77B494B6918434861F378082B00D11F
S21400271086E033786A4613700CAB42469F5C694687
S2140027203800744B98473800734B9847F378F27923
S2140027301343B2881343727A002A02D080225202D0
S2140027401343B27A002A02D0802292021343F27A0E
S214002750002A02D0802252031343327B002A02D082
S21400276080229203134371788901B278D201114313
S214002770194322681369002BFCD12960226813696B
S214002780002BFCD1B3792B73717B4B1E99418900CA
S214002790B37B002B01D00123194322681369002B59
S2140027A0FCD1FF332B71002904D022681369002B5B
S2140027B0FCD16971337A6B7322681369002BFCD1E4
S2140027C02379042B59D0082B74D01720002B00D067
S2140027D055E71369002BFCD1338DAB822268136951
S2140027E0002BFCD1738DAB8322681369002BFCD1C0
S2140027F0B38DEB83002042E73D498B69184388611F
S21400280083E73B49CB691843C8617EE738490B6AC2
S2140028101843086279E7364B596A0843586274E7EA
S21400282043460133042B00DD73E702ABD11C89005D
S214002830C95802329200D358DAB2042A00D968E79F
S21400284093002E4AD3589F46294A5369194351612B
S2140028505FE7274A9369194391615AE7244AD36987
S2140028601943D16155E7224A136A1943116250E7AA
S2140028701F4B5A6A114359624BE71369002BFCD170
S2140028802833F35C2B7522681369002BFCD129339F
S214002890F35CEB7622681369002BFCD12A33F35CD9
S2140028A02B7722681369002BFCD12B33F35C6B77F4
S2140028B00020E4E61369002BFCD1B36A6B61226842
S2140028C01369002BFCD1F36AEB6122681369002BB5
S2140028D0FCD1336B2B620020D1E6C046D525000024
S2140028E03CAE01005011002014AE01008D24000003
S2140028F000040040912300002123000028AE0100C0
S21400290002681369002BFCD1137101680B69002B58
S214002910FCD18033537102681369002BFCD1037914
S214002920042B05D0082B09D00020002B03D07047BD
S214002930107DC0B2FBE7908A80B2F8E75069F6E7F0
S21400294010B504682369002BFCD10379042B06D04C
S214002950082B28D0002B13D01723180010BD1723E0
S2140029600129FAD8837E002B05D0D2B26118303107
S2140029700A700023F1E7D2B2641822770023ECE74E
S21400298017230129E9D8837E002B05D092B218318F
S21400299049000A530023E0E792B20C31490064185C
S2140029A0A2800023D9E717230129D6D8837E002BDF
S2140029B005D106318900641862600023CDE70C312A
S2140029C089000A510023C8E7FEE7000010B51A4A3E
S2140029D01A4B9A4211D01A00194B9A420DD2194A34
S2140029E003339B1A9B0801339B00002213481249AD
S2140029F08C58845004329A42FAD1134A134B9A42A6
S214002A000AD2D34311495B1803218B4304339B1826
S214002A10002102C29342FCD10D4AFF210D4B8B438D
S214002A2093600D4A53687F390B4353600B4B9847AE
S214002A300B4B9847FEE7C04664CF0100000000201D
S214002A40800A002004000020800A0020C01D00200C
S214002A5000ED00E00000000000400041C943010016
S214002A60F1B10000F0B5C64600B50C00904600284F
S214002A700FD1002A11DD8F18094E0A4D306821004B
S214002A802B6898470134BC42F8D1404604BC9046B7
S214002A90F0BD01235B429846F7E78046F5E7C0465F
S214002AA06C11002064110020F0B5C64600B50E007B
S214002AB015000138022810D8002A11D000240C4B2B
S214002AC098460C4F43461868315D3B689847002887
S214002AD008DB0134A542F5D106E00124644203E098
S214002AE0140001E001246442200004BC9046F0BDBE
S214002AF06C110020681100200300064A1268002AA4
S214002B0004D0044A1068C318136070470249014A8B
S214002B101160F6E7E00A0020C03D00200120404298
S214002B20704780239B014B60002070470120704750
S214002B300020704770B582B005000E0000226B467C
S214002B40DA80064C6B46991D2800A0470028F9D16C
S214002B506B4606331B88337002B070BDAD1900009B
S214002B6070B505008CB2034E21002800B04700283F
S214002B70FAD170BD8119000010B582B06B46DC1D1D
S214002B80012221000F48104B984772B6BFF35F8FA3
S214002B9000220E4B1A700E4B1B7821780D4AD1542A
S214002BA07F2B0AD001330A4A13700122074B1A7092
S214002BB0BFF35F8F62B602B010BD0022044B1A70DE
S214002BC0F3E7C046E40A00201D1A000008000020B3
S214002BD0990B0020180B0020F0B591B08023DB0580
S214002BE0009300230193FF2269460A8100228B721C
S214002BF0CB720124242168464454013144540131E7
S214002C004354013143540A9305314354013143542C
S214002C1005930382C3760276027742761323837681
S214002C20427780235B0303932F4B0C932F4B0D931C
S214002C3001235B420E930F93E1235B0208932C4D16
S214002C402C4B1D602C4A2D4B1A602D4A2D4B1A60BA
S214002C506A468421C90528002B4B98472B4F3B68B2
S214002C60986800212A4EB0473B6858680021B04754
S214002C702E683000274B98471F2318408440264B69
S214002C801C602A68D369002BFCD1336802221343E8
S214002C903360174B1B68DA69002AFCD1596880221A
S214002CA052020A435A600121114AD171DA69002A98
S214002CB0FCD1DA69002AFCD15968802292020A43C4
S214002CC05A6001210A4A9171DA69002AFCD1134937
S214002CD00020134B984704228423DB059A75FC32A8
S214002CE00D4B1A6011B0F0BD030004000300050090
S214002CF0E40A00206C110020612B000068110020FF
S214002D00352B00006411002015160000D0000020AE
S214002D1049460100B511000000E100E0792B0000F3
S214002D207911000070B5154D2C682000144B98479B
S214002D301F2318401E3B8340802212498B502A686E
S214002D40D369002BFCD123680222934323600B4BEC
S214002D501B68DA69002AFCD15A680B490A405A6097
S214002D600021064AD171DA69002AFCD15A6807495F
S214002D700A405A600022014B9A7170BDE40A002096
S214002D80B511000000E100E0FFFFFEFFFFFFFDFFC2
S214002D9070B502001F4B1C781F4B1B789C4219D342
S214002DA0E31A1E4803701D4B1878002831D043B232
S214002DB0002B15DB031C884200D90B1CD8B2002858
S214002DC027D0154B1B78441EE4B201341419144D59
S214002DD0002614E020008038C31A10480370E2E78B
S214002DE00D4B1C7080200D4B18704BB2002B01DB76
S214002DF00800E4E78020E4E73300944207D0E95C6B
S214002E00117001327F2BF7D00133DBB2F5E7024AAF
S214002E10137070BD990B0020980B00209A0B0020B1
S214002E20180B002010B582B0054C01216B46D81D4A
S214002E30A0470028F9D06B46D87902B010BDC0462E
S214002E40912D0000134B1B6801211A7E0A42FCD00C
S214002E501A7ED20700D5986202211A7E0A42FCD05A
S214002E6004211A7E0A42FCD01A7E002052070AD598
S214002E705A8B520701D504225A83064A9279012AB0
S214002E8003D0986AC0B2C0B27047986AC005C00D39
S214002E90F9E7C046A80B002000B583B001A90123BE
S214002EA04B7000228A700B702F20024B984703B09D
S214002EB000BDC0464D0A000010B5054B1B68002B30
S214002EC004D0044B9847024B1B68984710BDC04679
S214002ED0A40B00200534000010B5054B1B68002B22
S214002EE004D0044B9847024B1B68984710BDC04659
S214002EF0A00B00200534000010B5054B1B68002B06
S214002F0004D0044B9847024B1B68984710BDC04638
S214002F109C0B00200534000010B50122024903482E
S214002F20034B984710BDC04670110020A80B002028
S214002F302115000010B5002202490348034B9847AC
S214002F4010BDC04670110020A80B002021150000FF
S214002F50F0B5D6464F464646C0B590B001AC012601
S214002F6066700025A570267021005220524FB84783
S214002F7021003E20B84721003F20B84721002F20DF
S214002F80B8478022D2024D4B9A614D4B8022D20523
S214002F909A61802212069A61802212029A61257036
S214002FA021005320B84702AC2000464B98473023F8
S214002FB0029365602572E67221000020424B9A4615
S214002FC09847002200214148414B994698470021E6
S214002FD00020404B984698470B2302936560257265
S214002FE0E67221000B20D04700220B213A48C84742
S214002FF000210B20C0470C23029365602572E67201
S21400300021000C20D04700220C213448C84700215C
S2140030100C20C047324B98463F23424613705570EB
S21400302095706670A570267021003F20B84743460D
S2140030301A78D1090023002904D15309DB01294954
S2140030408C4663441F21114001221000884098617D
S21400305002AC227000230393049323746374A27457
S214003060E27423752332A354183A002108A81E4B95
S21400307098471E4BA36180235B02E3601C4BA36250
S21400308001235B42E3621B4B23631B4B63631B4DB5
S21400309022001B4928001B4B98472A68D369002B3F
S2140030A0FCD1136802210B43136010B01CBC904681
S2140030B09946A246F0BDC0464D0A000000290040D1
S2140030C0802800403106000045060000F92E00006A
S2140030D0F10400001D050000D92E0000B92E0000E6
S2140030E070110020002800409544010080841E00D6
S2140030F00500530005003E0005005200A80B002006
S2140031000010004245120000074B1A68D369002BD6
S214003110FCD1136802210B431360034B1A68D36972
S214003120002BFCD17047C046A80B0020064B1A683F
S214003130D369002BFCD18F331375137613680221E5
S2140031408B4313607047C046A80B002070B582B052
S2140031500A4CA0470A4D802636026E610120094BB4
S214003160984701A900230B7001224A708B702F200C
S214003170054B9847AE61A04702B070BD992E00007F
S21400318080280040D13300004D0A000070B50400CE
S2140031900D00054B984780202043044CA04728008C
S2140031A0A047034B984770BD192F0000452E00001E
S2140031B0352F000010B50400064B98477F202040AE
S2140031C0054CA047FF20A0470400044B984720006A
S2140031D010BDC046192F0000452E0000352F0000F8
S2140031E070B504000E0015000A4B98478020204357
S2140031F0094B9847002D0AD03400013DEDB2013549
S2140032007519054E2078B0470134AC42FAD1034B0D
S214003210984770BD192F0000452E0000352F00007E
S21400322070B504000E0015000A4B984720000A4BA4
S2140032309847002D0BD03400013DEDB201357519CD
S214003240054EFF20B04720700134AC42F9D1034B45
S214003250984770BD192F0000452E0000352F00003E
S214003260022807D0042808D0012800D07047044B55
S2140032701960FBE7034B1960F8E7034B1960F5E7A5
S2140032809C0B0020A00B0020A40B0020012800D0DF
S214003290704780229201014B9A61F9E700280040AE
S2140032A0012800D0704780229201014B5A61F9E74D
S2140032B000280040022070470020704710B580228A
S2140032C09200034B9A610220024B984710BDC046FD
S2140032D0002800408101000080229200014B5A61C4
S2140032E07047C04600280040012802D002280CD0B3
S2140032F0704704228023DB055A701A005378042B8B
S214003300FCD1BFF34F8F30BFF2E705228023DB05E9
S2140033105A701A005378052BFCD1BFF34F8F30BF7D
S214003320E6E7000010B584B001226B469A700023D1
S2140033306946CB700A716A460B80013B0293039381
S214003340044C05492000054B98472000044B98473D
S21400335004B010BD7411002000200040FD0B0000DA
S2140033607D0A000010B50248024B984710BDC046C3
S214003370741100206D0B000070B505000E000A4C9D
S21400338000212000094B9847082231002000084BF6
S2140033909847002229002000064B98470821200065
S2140033A0054B984770BDC04674110020290B0000DD
S2140033B0990C0000990B0000D50C000010B50821F0
S2140033C00148024B984710BD74110020190D0000EB
S2140033D010B5002803D10120024B984710BD024BC0
S2140033E09847FBE7550100008101000010B5014B2E
S2140033F0984710BDAD01000010B5014B984710BDB1
S214003400ED01000070B5164B1B78012B00D070BD87
S2140034100022134B1A70134B9847134B98471349C7
S214003420134B9847134B984704000D00124B9847D0
S21400343020002900114B9847114B1B68002BE6D043
S2140034409E68002EE3D0FA22920000232000290076
S2140034500C4CA047B0470022094B1A60D7E7C0467D
S214003460B40B002065330000E1250100D723F441AA
S214003470891F0100C5160100BD3300009D930000A2
S214003480B80B00200116010070B5051E4ED02C4B5F
S2140034909847041E4CD02B682A4A9446634400245E
S2140034A0294A9A426441E4B22A79022A1ED0012AA5
S2140034B029D0012676420020002C16D0234B9847B0
S2140034C030000A38224B98472249234B9847234B13
S2140034D098472349234B98470122234B1A70234BC6
S2140034E01D602879224B9847012070BD164A00249B
S2140034F0934206D81F4B984701304442444100E0AF
S21400350000242E68D7E71B4B9847431C03D0002C9B
S21400351006D1194ECFE70020002CE6D0174B00E06E
S214003520154B2E689E42C9D91E00C7E70020DCE76F
S2140035302B79022BE4D0012BE5D00020D5E7C0463E
S2140035400595000018FCFFFFC8BBCE076993000076
S214003550E125010075130342891F0100951601003D
S2140035600534000079330000B40B0020B80B0020AF
S214003570E9320000A590000037894100B0BFCE07B1
S2140035807047000030B587B0764B03229A7710213B
S2140035901F329954213A21241A55DA771A006C32D0
S2140035A01A71140A5C71140C9C71120EDA711A00EE
S2140035B02C321A70140A5C70140C9C70120EDA709E
S2140035C01A008C321A72140A5C72140C9C72120E58
S2140035D0DA721A004D32FF321A74140A5C74140C34
S2140035E09C74120EDA741A00AD32FF321A73140A83
S2140035F05C73140C9C73120EDA7302229A76DA76D7
S21400360000241C75163C5C751C349C753134DC75C6
S2140036105A76253C1C760B3C1C7700255D772435B6
S2140036205C5501355C5519341955AA21FF315A5499
S2140036304D4A1178A822520099542B3AFF3A9854D2
S2140036400638163C08281CD9484B1B78002B02D19C
S2140036500122464B1A70464B9847464B9847464BB6
S2140036609847404BFC22FF329A5CFE214900585C8A
S21400367000021043C1B2000A404B9847200007B032
S21400368030BD1C0018006C30223A3D493D4DA8471D
S21400369020008C3018223C49A8472000AD30FF306F
S2140036A00C223A49A84720009730FF3002223849BA
S2140036B0A84702232B48FF252224027941790902D4
S2140036C01143827912041143C27912060A43590043
S2140036D08A1855700133DBB202579342EDDB214C5A
S2140036E01022D5235B00E254207863781B02034344
S2140036F0A07800040343E0780006184330322549DA
S214003700204B984704230421FA225200A15400219A
S214003710F622FF32A1542200F632FF325170F82210
S214003720FF32A1542200F832FF3253700131FA22E0
S214003730FF32A1542200FA32FF3253700131FC22CC
S214003740FF32A154A418637002ABF93AFF3A1A711B
S214003750114A00921149039A114B0420114CA047BC
S214003760082471E7D0130020CC130020BC0B0020E7
S2140037706572000051790000C97B0000F97F0000E7
S21400378090AE01001144010078AE0100D8AE0100F1
S214003790D4AE010094AE010081350000AC110020CB
S2140037A0E4AE01006581000070470000F0B5DE461B
S2140037B057464E464546E0B587B0654C0323A3778B
S2140037C048221F33E2541B3BE37723009C3300223E
S2140037D0904623711A0A62711A0CA2711A0EE271CF
S2140037E026002C362670320A6270320CA270320E18
S2140037F0E270FF22627608250827A576E576603A0D
S214003800FF3A9246227570226275A775393AE275BC
S2140038101F3A2276123A9346227741466177402134
S2140038208946FC314A4662543E22FF32A554053A88
S2140038304146A1543A22FF325946A1540132A554BA
S2140038402E3AFF3A94463C22FF326146A154033298
S214003850A554002294462D32FF326146A154220020
S2140038602D32FF322821494251707421494291700D
S2140038703621D17060229446D0326146A15422008F
S2140038803132FF327A2149425170692149429170A2
S2140038903621D1709A2252005146A1542200353268
S2140038A0FF327021517097703721D1700521242284
S2140038B0A15405310132A1541431053AA1540632FF
S2140038C0A0546A3223491800234B99469847702221
S2140038D022493000C8474023FF334246E254B533FE
S2140038E0E5540022F623FF33E2542300F633FF3379
S2140038F05F700132F823FF33E2542300F833FF33BE
S2140039005F700022FA23FF33E2542300FA33FF33BA
S2140039105A70FC23FF33E254E4180023637002ABB2
S21400392002321A710E4A00920E49039A0E4B082074
S2140039300E4CA0470E4B98470E4B98470E4B984799
S214003940082007B03CBC90469946A246AB46F0BD60
S214003950D0130020FCAE0100114401008CAF010022
S214003960A9370000B0110020FCAF010065810000FF
S214003970A1730000BD790000157C000070470000B0
S21400398070B58AB08D4B03219977102422229C545F
S2140039900625013A9D54203ADA771A006C321A71DD
S2140039A0150A5D71150C9D71120EDA711A002C3213
S2140039B01A70150A5D70150C9D70120EDA701A00DA
S2140039C0AD32FF321A73150A5D73150C9D73120E15
S2140039D0DA731A008C321A72150A5D72150C9D7213
S2140039E0120EDA721A004D32FF321A74150A5D741E
S2140039F0150C9D74120EDA74597602221A76053268
S214003A001A7700255D77052624355E5501355A550B
S214003A10AA22FF3299548A3AFF3A9C54684A11788F
S214003A20A822520099542B3AFF3A9854002806D000
S214003A30C823012800D18AE018000AB070BD1C0017
S214003A4018006C30203A5F495F4DA84720008C3044
S214003A5024225E49A8472000AD30FF3048225C494A
S214003A60A84720009730FF300C225A49A847032366
S214003A705248FF25222402794179090211438279AE
S214003A8012041143C27912060A4359008A18557067
S214003A900133DBB202579342EDDB484B00229A76A5
S214003AA0DA7608321A75223A5A75133A9A756032DF
S214003AB0DA750321C232FF3299540021F622FF3212
S214003AC099541A00F632FF325170F822FF32995498
S214003AD01A00F832FF32032151700021FA22FF3219
S214003AE099541A00FA32FF320B3151700021FC2231
S214003AF0FF3299549B1800225A7002AB01261E71A1
S214003B00354D00953549039A354B0320354CA04773
S214003B1006AB1E7100953449079A344B0B20A0471C
S214003B20264A107853781B02034390780004034318
S214003B30D0780006184340222D49234B98472D4B3A
S214003B4098472D4B98472D4B9847082374E71B4CF6
S214003B5020006C3006222A491B4DA84720008C30D6
S214003B6024222849A8472000AD30FF300C222649E1
S214003B70A84703231148FF25222402794179090228
S214003B801143827912041143C27912060A4359007E
S214003B908A1855700133DBB202579342EDDB074BB0
S214003BA005229A760022DA76703A1A7541325A75EC
S214003BB0023A9A754A32DA75B2E7C046D013002048
S214003BC0CC1300205CB001001144010030B00100AD
S214003BD0BCB00100A4B001007D390000B411002083
S214003BE004B1010065810000B81100200CB101008D
S214003BF064B0010029710000E9780000857B0000B0
S214003C0054B001000CB00100B0B0010070470000D5
S214003C1070B586B05D4B03219977102522229D54FE
S214003C20213A21241A55DA771A006C3200241A71C8
S214003C30160A5E71160C9E71120EDA711A002C327C
S214003C401A70160A5E70160C9E70120EDA701A0043
S214003C508C321A72160A5E72160C9E72120EDA7287
S214003C601A004D32FF321A74160A5E74160C9E74D1
S214003C70120EDA749C760222DA76123A1A75703AC6
S214003C805A7526329A758D32DA7559761D762C3A23
S214003C901A775C77AA24FF34195521315A541A39F9
S214003CA01E3299541431053A995406329854A03C61
S214003CB0FF3C0F2808D0364B9847364B9847364B74
S214003CC09847200006B070BD1C0018006C30203AE3
S214003CD03249334DA84720008C3024223149A8476A
S214003CE006202A49FF240B794A7912021A438B7957
S214003CF01B041A43CB791B0613431B185C70023057
S214003D002028F0D1214C1E22D5235B00E2542078D7
S214003D1063781B020343A07800040343E0780006A0
S214003D201843223220491E4B984706230621FA22C2
S214003D305200A1540021F622FF32A1542200F6328E
S214003D40FF325170F822FF32A1542200F832FF32BF
S214003D5053700131FA22FF32A1542200FA32FF32A8
S214003D6053700022FC23FF33E254E41800236370F0
S214003D7002AB02321A710D4A00920D49039A0D4B9E
S214003D8006200D4CA047082495E7C046D013002017
S214003D90D1740000297A0000357C000038B101009B
S214003DA01144010014B1010040B101000D3C0000B7
S214003DB0BC11002080B10100658100007047000042
S214003DC0F0B587B07A4B03229A7710211F329954A8
S214003DD0213A21241A55DA771A006C321A71140A1D
S214003DE05C71140C9C71120EDA711A002C321A7067
S214003DF0140A5C70140C9C70120EDA701A00AD3245
S214003E00FF321A73140A5C73140C9C73120EDA7366
S214003E101A008C321A72140A5C72140C9C72120EFF
S214003E20DA721A004D32FF321A74140A5C74140CDB
S214003E309C74120EDA7402229A76DA7600241C75C6
S214003E40163C5C751C349C753134DC755A76233C04
S214003E501C760D3C1C7700255D770A26A735FF35B6
S214003E605E55A636A825FF355E55AB3E01355E5538
S214003E70AA25FF355A5522329C5401329C54053AE5
S214003E8099544C4A14789621FF315C545178A822F4
S214003E90520099542B3AFF3A98540A24052808D021
S214003EA0454B9847454B9847454B9847200007B0E9
S214003EB0F0BD1C0018006C30223A4249424DA8471B
S214003EC020008C3018224149A8472000AD30FF3032
S214003ED00C223F49A84720009730FF3002223D4978
S214003EE0A847022302223249FF2700251D360879FB
S214003EF04C7924020443887900040443C8790006F8
S214003F00204354002018477052339B00CB185D7234
S214003F109D72DD721D730132D2B213008857824241
S214003F20E5DB234CFF222723E254EF3A8433FF33AA
S214003F30E254207863781B020343A078000403430E
S214003F40E07800061843303223491F4B9847072372
S214003F500721FA225200A1540021F622FF32A15472
S214003F602200F632FF325170F822FF32A1542200AE
S214003F70F832FF3253700131FA22FF32A154220088
S214003F80FA32FF3253700022FC23FF33E254E41867
S214003F900023637002AB02321A71104A0092104975
S214003FA0039A104B0720104CA047082478E7C04619
S214003FB0D0130020CC130020FD750000917A00007D
S214003FC0717C0000A8B101001144010090B101000D
S214003FD0F0B10100ECB10100ACB10100BD3D000044
S214003FE0C0110020FCB10100658100007047000090
S214003FF0F0B5D6464F464646C0B586B0904B032130
S2140040009977102422229C54213A11341A55DA77D3
S2140040101A006C3200241A71150A5D71150C9D7118
S214004020120EDA711A002C321A70150A5D70150C11
S2140040309D70120EDA701A008C321A72150A5D72B2
S214004040150C9D72120EDA721A004D32FF321A7477
S214004050150A5D74150C9D74120EDA749C76DC7667
S214004060202252421A7533325A75203A9A754332D4
S214004070DA755976223A1A760F3A1A775C770A3446
S214004080D3256D005C55BF26A825FF355E55013546
S2140040905C55AA24FF34195521315A541D39203253
S2140040A099540731053A9954664A11789622FF3298
S2140040B09954703AFF3A9854E13C04280CD0624B6D
S2140040C09847624B9847624B9847200006B01CBC46
S2140040D090469946A246F0BD1C0018006C30203A67
S2140040E05C495D4DA84720008C3024225B49A847D8
S2140040F003210320524B40360025D522520090461D
S214004100B446893AFF3A924642001C79A1465C7949
S21400411024024F4627439C7924042743DC7924064F
S2140041203C43A41866701C79A1465C7924024F466D
S21400413027439C7924042743DC7924063C43A55472
S2140041401C7AA1465C7A24024F4627439C7A2404B4
S2140041502743DC7A24063C43121892001219557243
S214004160424664469C545231890059184D728D72ED
S214004170CD720D730130C0B2010052469A5690427D
S214004180C2DB2F4CFF222723E254207863781B02E1
S2140041900343A07800040343E07800061843CF3AB0
S2140041A02F492D4B9847637F002B17DD244A117843
S2140041B053781B020B43917809040B43D178090608
S2140041C019430023012507241000DA008A18D57148
S2140041D0947101335BB2427F9342F6DB184B0522A3
S2140041E00520FA21490058540020F621FF31585482
S2140041F01900F631FF314870F821FF315854190084
S214004200F831FF314A700130FA21FF315854190055
S214004210FA31FF314A700021FC22FF3299549B1874
S21400422000225A7002AB02321A710E4A00920E49F0
S214004230039A0E4B04300E4CA04708243FE7C046B6
S214004240D0130020CC1300203D770000FD7A00003C
S214004250BD7C000030B20100114401000CB2010028
S21400426038B20100ED3F0000C411002068B2010022
S2140042706581000070470000F0B5DE4657464E46A2
S2140042804546E0B589B00390644C02260223984662
S214004290A67748222223E2541B3BE3772A3A1933B7
S2140042A0E25423009C33002723711A0A62711A0C09
S2140042B0A2711A0EE27125002C3525702A0A62704A
S2140042C02A0CA2702A0EE270FF226276F53AA276D7
S2140042D008200822E2766022524294462275702216
S2140042E06275A0753722E27518222276042291465E
S2140042F02277677740229246FC325146A1543E22EE
S214004300FF320821A154053AA7543A22FF32494603
S214004310A15401320821A1542E3AFF3A3C21FF3124
S214004320625403310A226254602212396254210018
S2140043302D31FF3101224A70382252428A703522CE
S214004340CA704022524298214900625421003131FD
S214004350FF31512252424A702E2252428A70352232
S214004360CA709A2149006246625421003531FF31F5
S21400437070224A7088703720C87003202421605449
S21400438001310A22625426226946097BA1546A3208
S21400439023491800234B9946984770222249280043
S2140043A0C8474023FF33E754B533E6540022F623CC
S2140043B0FF33E2542300F633FF3342465A70F823A5
S2140043C0FF330122E2542300F833FF3342465A708B
S2140043D00022FA23FF33E2542300FA33FF335A70E5
S2140043E0FC23FF33E254E4180023637004AB1E7111
S2140043F00E4A00920E49059A0E4B02200E4CA0471C
S2140044000E4B98470E4B98470E4B9847082009B01E
S2140044103CBC90469946A246AB46F0BDD013002061
S21400442078B201001144010008B301007542000093
S214004430C811002078B3010065810000F56F000008
S2140044407D780000657B00001520704715207047BA
S21400445022230249CB5C137008207047D01300203B
S214004460044B597E11705B7E0820FF2B00D07047EE
S2140044700230FCE7D0130020024B9B7E137008200E
S2140044807047C046D0130020024BDB7E1370082016
S2140044907047C046D0130020024B1B7E13600820D6
S2140044A07047C046D013002030B583B015000C7896
S2140044B001A90C7001234B700D4B5B6D15209847BE
S2140044C0082804D0FF232B700A2003B030BD09490A
S2140044D00B794A79120213438A7912041A43CB796C
S2140044E01B061A4363009B185B782B70EDE7C046EB
S2140044F0780D0020D013002030B583B015000C785E
S21400450001A90C7001234B700C4B5B6D152098476E
S214004510082804D000232B700A2003B030BD0849B9
S2140045200A794B791B0213438A7912041343CA791A
S21400453012061A436400A35C2B70EEE7780D002089
S214004540D013002001235B4213800A20704701230A
S2140045505B4213600A207047FA239B0013800820F2
S2140045607047FA23DB00138008207047014B138046
S2140045700820704788130000014B138008207047FE
S21400458070170000FA23DB001380082070472023F2
S214004590137008207047402313700820704780234C
S2140045A0DB01138008207047024BDB7F1370082066
S2140045B07047C046D0130020024B9B7F1370082024
S2140045C07047C046D013002027230249CB5C1370E7
S2140045D008207047D0130020094BD4214900595CAD
S2140045E09171D3214900595C1180A821FF315B5697
S2140045F053800123D3710433938000207047C04654
S214004600D013002030B50B782221204841560A20CE
S2140046108B423ADC3330FF301C4C245CA3421CD364
S2140046200A208B4231DA1B1B19494B43174C982141
S2140046304900615C3220FF30205C00020143992073
S2140046404000205C000408433421FF31615C090609
S214004650014359181160082017E00C4C96214900B8
S214004660615C2E20FF30205C000208439721490041
S214004670615C090408433021FF31615C090601438F
S21400468004484343CB181360082030BDD0130020E5
S214004690006A1800400D03000A783A23FF330349E6
S2140046A0CB5C08209A4200D902307047D013002015
S2140046B00B78084A127F0A209A420AD3AC22FF32AD
S2140046C004498A5C0238D20703D58A7E9A4200D90A
S2140046D002307047D01300200B783C22FF32064988
S2140046E08A5C0A209A4206D39D2252008A5C0238CF
S2140046F09A4200D902307047D01300200B78084A3F
S214004700127F0A209A420AD3AC22FF3204498A5CFE
S2140047100238920703D58A7E9A4200D90230704743
S214004720D01300200A7822230349CB5608209A4249
S21400473000DB02307047C046D01300200B782222E0
S214004740084882560A2093420ADA4A780238002A33
S21400475006D1AA22FF3203498A5C9A4200D9023067
S2140047607047C046D013002030B583B014000D78D3
S21400477001A90D7001234B7015200B4B9847082894
S21400478002D00A2003B030BD084A6B005B199B00BC
S214004790D31894331B78C8335B00D2189179D37939
S2140047A01B020B432380EDE73D470000D01300209B
S2140047B0F0B594461A4B1C7F5F7F22215E56002E72
S2140047C028DD19001D795B791B022B438D792D049A
S2140047D02B43CD792D061D4300210BE043781B09A2
S2140047E0BB4203DD0078002800D01F000131C9B2AB
S2140047F0B1420FDA4800281843781B071B0FA34264
S214004800ECDA0278002AF1D01C0043781B09BB4280
S214004810EBDCEBE763461C705F700820F0BDC0461B
S214004820D01300200B78052B04D00820072B00D9C6
S214004830023070470A20FCE70A7825230349CB5646
S21400484008209A4200DD02307047C046D013002090
S2140048500820704730B50988002920D02223114A45
S214004860D05600281BDD147A537A1B022343947A11
S21400487024042343D47A24061C430023032504E09F
S21400488049080133DBB2834209DA0029F8D05A001E
S214004890D2189200A218D27A2A40032AF0D0082012
S2140048A030BDC046D01300200B780820002B02D065
S2140048B0062B01D0023070470820FCE710B582B006
S2140048C001AC042220000F4B98476388002B04D1CC
S2140048D001AB1A780A23002A07D06B46991D1A20C6
S2140048E0094B98470A23082802D0180002B010BDCA
S2140048F001A91330054B984703000828F5D00A2372
S214004900F3E7C0461144010055480000A9480000DE
S2140049100A78034B1B7F08209A4200D90230704762
S214004920D013002070B50D782223144AD456002CDC
S21400493022DD107953791B02034390790004034368
S214004940D0790006184300232E0003E00133DBB2C3
S214004950A3420FDA5A00821811780029F6D051784F
S2140049600907090F8D42F1DB527812099642EDDCF9
S214004970082000E00A2070BD0A20FCE7D0130020C3
S21400498010B50868074B9C466044074A0A239042C5
S21400499006D80649064B98470823002900D002335C
S2140049A0180010BD608FF7C840164000C0270900E9
S2140049B0AD1301000A7824230349CB560A209A42F5
S2140049C000DC02387047C046D013002030B5040023
S2140049D02123194AD55C002D2CD01100137B527B65
S2140049E012021A438B7B1B041A43CB7B1B06134312
S2140049F0002004E00130C0B20C33A84218D01A7868
S214004A005978090211439A7812041143DA7812068B
S214004A100A43A242EED81A795979090211439A79C3
S214004A2012041143DA7912060A439442E2D800E0EF
S214004A30FF2030BDFF20FCE7D013002010B508682B
S214004A40044B98470823FF2801D0180010BD0233F6
S214004A50FBE7C046CD4900000B68262219498A5C50
S214004A60911F032908D8184A94466344174A082019
S214004A70934200D9023070470A2A11D00B2A18D068
S214004A8011000D39012914D90A200C2AF3D1104A35
S214004A90944663440F4A02389342ECD90230EAE760
S214004AA00D4A944663440D4A08209342E3D90230E7
S214004AB0E1E70B4A944663440A4A08209342DAD94F
S214004AC00230D8E7D01300204023FCC880841E00A4
S214004AD080650BC9808D5B00403576C9405DC60099
S214004AE000EA29C9404B4C00F0B50D7849784A08D1
S214004AF00948AC24FF3401263140035D0127BB433F
S214004B00324052000B4302218B43134303552023AC
S214004B10C5540820F0BDC046D0130020F0B5DE46D0
S214004B204F464646C0B582B0019015009846002311
S214004B309946030008281DD02D4B984701990F0071
S214004B402C4B98470131CBB29B46002B4ED02A49BE
S214004B500A794B791B021A438B791B041343CA79D3
S214004B6012061A4316005C46380048444B4600932B
S214004B702F0021E03533FF331F4AD35C9946DBE72D
S214004B800133DBB2834213DA002C1CD059007118B3
S214004B904A781207120F9542F2DB4A7812099742BA
S214004BA0EEDC0A78002AEBD0013CE4B2E8E7009B92
S214004BB0A3450AD0002C06D08145F8DA002C01D097
S214004BC0009BE3E74B46082000E01020002B09D1AD
S214004BD0019C013C43461C7002B01CBC90469946A2
S214004BE0A346F0BD013B42461370F5E70820EFE709
S214004BF01546010081150100D013002070B54C78D1
S214004C002220074D2D561838AC4200DD70BD88783E
S214004C100978130002002000024CA047F6E7C046C1
S214004C20D01300201D4B0000F0B5DE4657464E461A
S214004C304546E0B587B003900291150004935849A5
S214004C40D1235B00CB5CA422FF328A5C12021A439B
S214004C50D2235B00CB5C1B041A43A623FF33CB5C3A
S214004C601B0613431020002B06D007B03CBC904612
S214004C709946A246AB46F0BD4A4B984703990C00AE
S214004C80494B98470131CBB2181E059300D185E0F9
S214004C90434B1E795A79120232439E7936043243C8
S214004CA0DE79360616432622995C404A0A410121DF
S214004CB011408A46197B5A7B120211439A7B1204D2
S214004CC00A43D97B090611438946197A5A7A120291
S214004CD011439A7A12040A43DB7A1B0613439B4657
S214004CE00100A84645E00139C9B20133DBB29C4257
S214004CF03ADD002944D01F005800301842781207C9
S214004D00120F9542F1DB427812099045EDDC0278ED
S214004D10002AEAD05246002A18D05A00D21892002A
S214004D205A44107A4200121892004A44107A844676
S214004D300192507A000262461043019A927A120457
S214004D401043019AD27A12060243CED1029A002A62
S214004D50C9D17A00D719BF005F447A7A002AC4D036
S214004D600139C9B2C1E70023059A8A420AD0002950
S214004D7006D0002CF7DD002901D00023BBE70B008E
S214004D80082000E01020002B04D1039B013B049A6E
S214004D9013706AE7013B049A137066E70820F4E78D
S214004DA0D01300201546010081150100E37F0000A6
S214004DB070B54C782220074D2D561838AC4200DDD1
S214004DC070BD88780978130002002000024CA047C6
S214004DD0F6E7C046D0130020294C000010B5222369
S214004DE0144AD35698420BDB2623D25C1A3B134157
S214004DF0DB071ED4AA23FF330E4AD35C834218D89F
S214004E000C4B1A795C79240214439A7912041443E1
S214004E10DA791206224340008154F822FF329A5C67
S214004E20FC214900585C00021043C1B2000A024B44
S214004E30984710BDD0130020F97F0000F8B5CE4685
S214004E40474680B504000F001500884212D8012698
S214004E500A4B9946984607E000212000C0476D0897
S214004E600134E4B2A74205D32E42F5D0310020002B
S214004E70C847F4E70CBC90469946F8BDDD4D0000E7
S214004E8070B50C002223404AD356984217DAAA235C
S214004E90FF33D35C834212D845002D18AD001100B5
S214004EA0137A527A12021A438B7A1B041A43CB7A6D
S214004EB01B0613435B19DB7ADB439B0700D070BDF0
S214004EC00E000B794A7912021A438B791B041A4397
S214004ED0CB791B0613434000C454F823FF33CB5C46
S214004EE0FC225200885C00021843C1B2000A274B1D
S214004EF098472623F25C233B1341DB07DFD5002CC3
S214004F00DDD1214B187A5A7A12020243987A0004AD
S214004F100243D87A0006104345192D7A22229C5661
S214004F20002C1CDD1A0019795B791B020B43917962
S214004F3009040B43D17909061943002303E0013322
S214004F40DBB2A3420BDA5A00525C002AF7D05A00B2
S214004F50D21892008218127AAA42F0D1AFE70A4914
S214004F600A7B4B7B1B0213438A7B12041343CA7BC8
S214004F7012061A436B005D19AD00AD1800232B72A4
S214004F806B72AB72EB729AE7D0130020F97F0000C9
S214004F9070B582B00D784E7801A90D7000234B7065
S214004FA015200C4B98470400082803D00A2420003C
S214004FB002B070BD2623084AD35C0F2B04D0310004
S214004FC02800064B9847F2E731002800044B984724
S214004FD0EDE7C0463D470000D0130020814E00009C
S214004FE0DD4D000070B504000D0025490B794A79A7
S214004FF012021A438B791B041A43CB791B06134300
S2140050004200D554F823FF33CB5CFC225200885C68
S21400501000021843C1B2000A1A4B9847002D2AD046
S214005020174A107A537A1B020343907A000403430C
S214005030D07A0006184363001C19A40000190378F0
S214005040427812021A4383781B041A43C3781B065D
S21400505013430D4A93420FD80A238372084BFA2251
S214005060FF329A5CFD214900585C00021043C1B231
S214005070000A044B984770BD0E238372EEE7C046C5
S214005080D0130020F97F00001F21F63670B505000A
S21400509046002A4C2379627912021A43A3791B042C
S2140050A01A43E3791B0613439955F823FF33E35C51
S2140050B0FC225200A05C00021843C1B2000A204B3A
S2140050C098472379627912021A43A3791B041A437C
S2140050D0E3791B0613439B5D002B00D070BD174C75
S2140050E0237A627A12021343A27A12041A43E37AEC
S2140050F01B061A4373199B00002199549B18002223
S2140051005A709A70DA70FA23FF33E35CFB32FF3290
S214005110A05C00021843C1B2000A094B9847262338
S214005120E35C052BDAD15235AD00044B5D19002245
S2140051306A72AA72EA722A73D0E7C046D0130020B9
S214005140F97F000070B582B00D784E7801A90D7019
S21400515001234B7015200C4B98470400082803D0F9
S2140051600A24200002B070BD2623084AD35C042B14
S21400517004D031002800064B9847F2E7310028009B
S214005180044B9847EDE7C0463D470000D01300208B
S2140051908D500000E54F000010B582B010004C782E
S2140051A08B780A78002A09D04023FF33234AD35C41
S2140051B0012B1AD03A23FF33204AD35C1F499F2283
S2140051C052008A5C121B9B18DBB26A4613713C22A3
S2140051D0FF328A5C93420CD89D22520017498A5CA3
S2140051E0934208D26B461A7105E03833FF33D35C1E
S2140051F0E4E76B461A7111492723CC5C203B234019
S2140052000F4C5C439A235B00CB5C3622FF328A5CF1
S214005210120213439B2252008A5C12041A4338235C
S214005220FF33CB5C1B061343E31800930822694642
S214005230044B9847082002B010BDC046D01300208B
S214005240C027090011440100F0B5C64600B584B079
S2140052500192042203A8434B984703A91B20424B04
S2140052609847082804D00A2004B004BC9046F0BD35
S21400527003AA1378578826223C49895C03394A1EBC
S21400528091410631072B69D89A00394DAA5897469E
S2140052901B01DBB21A001032D2B2904693425FD2A4
S2140052A0324E3579727912021543B27912042A43C6
S2140052B0F5792D061543AC46002501240CE01100B7
S2140052C072781209AA4202DD3C4211D015007F080E
S2140052D00133DBB2984513D05E006644727812073D
S2140052E0120F8A42ECDA3C42E9D1002FEFD1E6E712
S2140052F0002FEBD0EBE73A23FF331C4AD15C0D00BE
S2140053002D010F2319400D43019B1D70ACE7174D6F
S2140053102B796A7912021A43AB791B041A43EB798C
S2140053201B0613431A0080331C00002502E00232DD
S214005330A2420CD0160053781B071B0F8B4200DAD4
S214005340190073781B09AB42F1DD1D00EFE7002F53
S214005350D6D03A23FF33054AD55CD1E70025CFE700
S2140053600025CDE71144010025480000D013002099
S21400537088B3010010B5100004220249024B98477A
S214005380082010BDE41300201144010010B51300DE
S2140053900A7822210D4841560A208A4200DD10BDB7
S2140053A00A4C217A607A00020843A17A090408436D
S2140053B0E17A0906014350008218920089180431E8
S2140053C004221800024B98470820E8E7D013002074
S2140053D01144010000B583B010004A788B789A42D9
S2140053E025D900236A46137113490B7A4A7A1202AA
S2140053F013438A7A12041A43CB7A1B061A432723CE
S214005400C95C4B005B189B009B1819795A791202ED
S21400541011439A7912040A43DB791B06134300935F
S21400542008226946054B9847082003B000BD9B1A22
S2140054306A461371D8E7C046D01300201144010015
S214005440F0B5C64600B582B0904601AD04222800ED
S214005450384B98472B78002B17D0062B59D11C3386
S214005460354AD75600200725002F54DD324A1679D4
S21400547053791B023343967936043343D67936067E
S2140054801E4300200725002235E022232A4AD35651
S2140054909C46002B4ADD01AB5E88177953791B02C8
S2140054A03B4397793F043B43D7793F061F43002091
S2140054B00725002201240BE04B781B09834202DDFE
S2140054C0344200D0180076080132D2B2624522DAA1
S2140054D0510079184B781B071B0FAB42ECDA3442AD
S2140054E0F1D01D004B781B099842EBDBEBE701324D
S2140054F0D2B2BA420FDA510071184B781B071B0F55
S214005500AB4200DA1D004B781B098342EFDD180022
S214005510EDE7FF20FF2500010F231D4028434346EB
S2140055201870082002B004BC9046F0BD0020072585
S214005530F1E7C04611440100D013002010B5140056
S2140055400B7822220D498A560A20934200DD10BDB0
S2140055500800097A427A12020A43817A09040A4349
S214005560C17A090611435A00D3189B00C9180422B1
S2140055702000034B98470820E9E7C046D0130020D8
S2140055801144010010B582B010002623374AD25CC1
S214005590374B1341DB0702D50B78002B16D1AC2313
S2140055A0FF33324AD45CAA3BFF3B1C404B78052BAA
S2140055B02CD90522D31A5BB28A789A4231DBD31AE9
S2140055C0DBB2A34224D26B461C712CE002236A464F
S2140055D0137126490B7A4A7A120213438A7A120406
S2140055E01A43CB7A1B061A432723C95C4B005B1869
S2140055F09B009B1819795A79120211439A79120462
S2140056000A43DB791B061343009328E05BB2D3E71B
S214005610052B02D86A46137105E005236A46137106
S21400562001E06B461C7111490B7A4A7A1202134349
S2140056308A7A12041A43CB7A1B061A432723C95CBC
S2140056404B005B189B009B1819795A79120211437C
S2140056509A7912040A43DB791B0613430093082247
S2140056606946044B9847082002B010BDD0130020AE
S214005670E07F00001144010010B514000B782222D0
S2140056800D498A560A20934200DD10BD0800097AAB
S214005690427A12020A43817A09040A43C17A090649
S2140056A011435A00D3189B00C91804222000034B4C
S2140056B098470820E9E7C046D013002011440100AF
S2140056C000B583B010004B788A78052B0BD90521DE
S2140056D0CB1A5BB29A420CDBD31ADBB2052B04D88A
S2140056E06A46137108E05BB2F4E705236A46137155
S2140056F002E000236A46137111490B7A4A7A1202B5
S21400570013438A7A12041A43CB7A1B061A432723BA
S214005710C95C4B005B189B009B1819795A791202DA
S21400572011439A7912040A43DB791B06134300934C
S21400573008226946034B9847082003B000BDC046C0
S214005740D013002011440100F0B5DE4657464E4601
S2140057504546E0B585B0009201235B4203930B7883
S214005760994622232A4AD756002F40DD16795379C8
S2140057701B023343967936043343D67936061E43E6
S21400578000239A46013B98460023002194464A4649
S2140057900192C34604E00131C9B20B00B94223DAD4
S2140057A04A00B2181478002CF5D052339B0063449C
S2140057B0587A8046987A000245460543D87A00040F
S2140057C028431B7B1B060343E5D09B45E3D3507859
S2140057D00007000F8145DEDB5278120901989042DF
S2140057E0D9DCA2469B46D6E75346002B0CD10422B2
S2140057F003A90098074B9847082005B03CBC904684
S2140058009946A246AB46F0BD5B460393EFE7C0461B
S214005810D01300201144010000B583B0082268466A
S214005820044B9847044B5B6869460120984703B0D1
S21400583000BDC04611440100780D002000B583B0BD
S214005840042201A8064B9847019B064A94466344E7
S214005850054A0820934200D9023003B000BDC04676
S21400586011440100C02571CC80841E0000B583B0B1
S214005870042201A8064B9847019B064A94466344B7
S214005880054A0820934200D9023003B000BDC04646
S2140058901144010000EA29C900127A0000B583B05D
S2140058A0042201A80A4B9847019A0A4B9A420BD049
S2140058B0094B0A499A4209D00948844663448B42F8
